:0300000002048C6B
:0C048C00787FE4F6D8FD75812A0204D3C5
:100552000808F7FBFDFEEFDFBF7F0B12C0F9A4B066
:07056200999282F88090FFDE
:10056A007E03AD061EED600A7F28AD071FED60F21F
:02057A0080F807
:01057C00225C
:10051800E4FCECFF3395E0FEC3EF9404EE648094B2
:1005280080502674082CF8E6F4F590741E2CF8E632
:100538002412F8E6F4F580EF64014E700674802505
:0905480080F58012056A0C80C9DF
:010551002287
:0203E000A9076B
:1003E200E4F52AE970027902E9640170027903D224
:1003F200B70000C2A00000D2B60000C2B60000D210
:10040200B6E91392B70000C2B60000D2B6E9C31330
:100412001392B70000C2B6D2B70000E4FEFFFDEDB2
:10042200C39408748094805022A2B7E4334207D266
:10043200B60000C2B60000EF25E0FFEE33FEED6429
:10044200077005A2B73342070D80D4E4FDEDC394D3
:1004520008748094805027E4A2B733D2B60000C259
:10046200B60000C43333335480422AEDC394077478
:100472008094805006E52AC313F52A0D80CFD2A0BE
:09048200C2B6D2B7EFFEE52AFF75
:01048B00224E
:10032300E4FF1203E08F1DC3740E9F7480F8987E60
:100333000050047F0180027F00C3EF94F3EE6480DA
:04034300948050DC76
:10034700752800851D29AC28AD29EC1202067BD340
:100357007A9B79DE783E1200FB7BCD7ACC791478D4
:100367004112000A8F278E268D258C24E4FFFE7DFF
:10037700207C41AB27AA26A925A8241200FB12023C
:100387003F8E228F237C037DE81202C08F21AE228D
:10039700AF237C037DE81202C0AA04AB057D647C11
:1003A70000AF03AE021202C08F207D647C00AF0352
:1003B700AE021202C0AA04AB057D0A7C00AF03AEF1
:1003C700021202C08F1F7D0A7C00AF03AE02120229
:0603D700C08D1E12051886
:0303DD00020323F5
:100003000202ABE86480F8E933E83360110460F07E
:10001300ED33EC337009E8FCE9FDEAFEEBFF220463
:1000230060DED3EB9FEA9EE99DE8C2E78CF0C2F75E
:1000330095F0400CE8CCF8E9CDF9EACEFAEBCFFB2A
:1000430012027685D0F05804700320D5B3E804700B
:10005300075002B2D50202B592D5EC0460F7E4CCA6
:10006300C0E0C398F8603B94186008400DD0E0FBF3
:1000730002028DE4FBFAC9FC8028E830E406E4C9F7
:10008300FBE4CAFCE830E305E4C9CACBFCE8540747
:100093006010F8C3E913F9EA13FAEB13FBEC13FC52
:1000A300D8F130F52FC3E49CFCEF9BFFEE9AFEEDF5
:1000B30099FDD0E0FBEF4E4D4C701222DB030202A0
:1000C300B2EC2CFCEF33FFEE33FEED33FDED30E706
:1000D300EB02028DEF2BFFEE3AFEED39FDD0E0FB94
:1000E30050130BBB00030202B5ED13FDEE13FEEF3D
:0800F30013FFEC13FC02028D67
:1000FB00EC4D6011E8497017ED33EC3304600DE4FF
:10010B00FCFFFEFD22E933E8330470F80202AB1268
:10011B00027658046009E4CC248150062850090269
:10012B0002B52840030202B2C0E0EB4A7044B9802A
:10013B0006D0E0FB0202A1EF4E701CBD8008EBFF66
:10014B00EAFEE9FD80EBE98DF0A4FEE5F00201E4A7
:10015B00E9CDF9EAFEEBFFEF89F0A4FCE5F0CE89DF
:10016B00F0A42EFFE435F0CD89F0A42DFEE435F09C
:10017B008067EF4E7005BD80D780C3EF8BF0A4ACCA
:10018B00F0EE8BF0A42CFCE435F0F8EF8AF0A42C05
:10019B00E5F038FCE433CB8DF0A42CFCE5F03BF818
:1001AB00EE8AF0A42CFCE5F038F8E433CF89F0A408
:1001BB002CFCE5F038CF3400CE89F0A42FFFE5F00E
:1001CB003EFEE433C98DF0A42EFEE5F039CD8AF066
:1001DB00A42FFFE5F03EFEE43DFD33D0E0FB5007DE
:1001EB000BBB000F0202B5EC2CFCEF33FFEE33FE22
:0601FB00ED33FD02028D50
:1002010075F020800E75F010800575F0087D007E78
:10021100007F003392D530D503120315EC33401023
:10022100EF33FFEE33FEED33FDEC33FCD5F0ED2281
:0E023100E5F0247EA2D513CC92E7CDCEFF22BD
:10023F00EDD2E7CD33EC3392D524814006E4FFFEB7
:10024F00FDFC22FCE4CFCECDCC24E0501174FF8016
:10025F00EDC3CC13CCCD13CDCE13CECF13CF0470B3
:07026F00F030D5DE0203159B
:10027600E9D2E7C933E833F892D5EDD2E7CD33ECCE
:0702860033FC5002B2D52247
:10028D00EC30E7100FBF000C0EBE00080DBD0004D2
:10029D000BEB6014A2D5EB13FCED92E7FD2274FF7E
:1002AD00FCFDFEFF22E480F8A2D574FF13FC7D80D7
:0302BD00E480EFEB
:10049800020323E493A3F8E493A34003F68001F254
:1004A80008DFF48029E493A3F85407240CC8C33365
:1004B800C4540F4420C8834004F456800146F6DF34
:1004C800E4800B0102040810204080900552E47E6D
:1004D800019360BCA3FF543F30E509541FFEE49329
:1004E800A360010ECF54C025E060A840B8E493A3F0
:1004F800FAE493A3F8E493A3C8C582C8CAC583CA1B
:10050800F0A3C8C582C8CAC583CADFE9DEE780BED2
:010569000091
:1002C000BC000BBE0029EF8DF084FFADF022E4CC22
:1002D000F875F008EF2FFFEE33FEEC33FCEE9DECEB
:1002E000984005FCEE9DFE0FD5F0E9E4CEFD22ED31
:1002F000F8F5F0EE8420D21CFEADF075F008EF2F7B
:10030000FFED33FD4007985006D5F0F222C398FD6B
:050310000FD5F0EA2208
:0E031500C3E49FFFE49EFEE49DFDE49CFC22F9
:00000001FF
